:100000000C9463000C948B000C948B000C94B8053A
:100010000C94B8050C94B8050C948B000C948B00D0
:100020000C948B000C948B000C948B000C948B0024
:100030000C948B000C948B000C948B000C948B0014
:100040000C94FB030C948B000C946B040C944504EF
:100050000C948B000C948B000C948B000C948B00F4
:100060000C949D040C948B000000000024002700D9
:100070002A0000000008000201000003040700003D
:1000800000000000000000000000230026002900FE
:1000900000000000250028002B00040404040404D0
:1000A0000404020202020202030303030303010227
:1000B00004081020408001020408102001020408F6
:1000C00010203006A20A11241FBECFEFD8E0DEBFF9
:1000D000CDBF11E0A0E0B1E0EEECF5E102C005908B
:1000E0000D92AE33B107D9F722E0AEE3B1E001C023
:1000F0001D92A23EB207E1F710E0C2E6D0E004C0D4
:100100002197FE010E94D40AC136D107C9F70E9487
:10011000E1060C94DA0A0C94000090E0FC01EE5821
:10012000FF4F2491FC01E255FF4F3491FC01E6564C
:10013000FF4FE491EE23C9F0222339F0233001F17F
:10014000A8F4213019F1223029F1F0E0EE0FFF1F61
:10015000E057FF4FA591B4918FB7F894EC916111DE
:1001600026C030953E233C938FBF08952730A9F0D9
:100170002830C9F0243049F7809180008F7D03C07A
:10018000809180008F7780938000DFCF84B58F7758
:1001900084BDDBCF84B58F7DFBCF8091B0008F779E
:1001A0008093B000D2CF8091B0008F7DF9CF3E2BED
:1001B000DACFCF93DF9390E0FC01E255FF4F24911B
:1001C00086569F4FFC0184918823D1F090E0880FE0
:1001D000991FFC01E859FF4FA591B491FC01E0572C
:1001E000FF4FC591D49161110EC09FB7F8948C91C7
:1001F000E22FE0958E238C932881E223E8839FBF32
:10020000DF91CF9108958FB7F894EC91E22BEC93A6
:100210008FBFF6CF3FB7F89480911E0290911F02D6
:10022000A0912002B091210226B5A89B05C02F3FC6
:1002300019F00196A11DB11D3FBFBA2FA92F982F0C
:100240008827BC01CD01620F711D811D911D42E007
:10025000660F771F881F991F4A95D1F708958F92CF
:100260009F92AF92BF92CF92DF92EF92FF924B019B
:100270005C010E940A016B017C010E940A016C1959
:100280007D098E099F09683E734081059105A8F399
:1002900021E0821A9108A108B10888EEC80E83E017
:1002A000D81EE11CF11C81149104A104B10429F7AA
:1002B000FF90EF90DF90CF90BF90AF909F908F9086
:1002C00008952FB7F89460911A0270911B028091E3
:1002D0001C0290911D022FBF0895AF92BF92CF9242
:1002E000DF92EF92FF920F931F93CF93DF936C01F6
:1002F0007B018B01040F151FEB015E01AE18BF08D7
:10030000C017D10759F06991D601ED91FC91019088
:10031000F081E02DC6010995892B79F7C501DF91A0
:10032000CF911F910F91FF90EF90DF90CF90BF90F2
:10033000AF900895FC01538D448D252F30E0842F1C
:1003400090E0821B930B541710F0CF9608950197FD
:100350000895FC01918D828D981761F0A28DAE0FEA
:10036000BF2FB11D5D968C91928D9F5F9F73928F71
:1003700090E008958FEF9FEF0895FC01918D828D9D
:10038000981731F0828DE80FF11D858D90E008956A
:100390008FEF9FEF0895FC01918D228D892F90E0C2
:1003A000805C9F4F821B91098F739927089582E289
:1003B00092E00E94CB0121E0892B09F420E0822FFA
:1003C000089580E090E0892B29F00E94D7018111E7
:1003D0000C9400000895FC01A48DA80FB92FB11D45
:1003E000A35ABF4F2C91848D90E001968F7399276B
:1003F000848FA689B7892C93A089B1898C91837049
:1004000080648C93938D848D981306C00288F38941
:10041000E02D80818F7D80830895EF92FF920F936E
:100420001F93CF93DF93EC0181E0888F9B8D8C8DA0
:1004300098131AC0E889F989808185FF15C09FB794
:10044000F894EE89FF896083E889F9898081837057
:10045000806480839FBF81E090E0DF91CF911F9106
:100460000F91FF90EF900895F62E0B8D10E00F5F27
:100470001F4F0F731127E02E8C8D8E110CC00FB6FD
:1004800007FCFACFE889F989808185FFF5CFCE0195
:100490000E94EB01F1CFEB8DEC0FFD2FF11DE35A24
:1004A000FF4FF0829FB7F8940B8FEA89FB89808118
:1004B0008062CFCFCF93DF93EC01888D8823B9F092
:1004C000AA89BB89E889F9898C9185FD03C080815F
:1004D00086FD0DC00FB607FCF7CF8C9185FFF2CFDC
:1004E000808185FFEDCFCE010E94EB01E9CFDF9146
:1004F000CF9108952091A501260F3327331F213274
:100500003105ECF42091C901FC0190E080E0243039
:1005100069F082E00895A091A5012191AC014B57AB
:100520005E4FA40FB52FB11D2C930196861798F33B
:100530008091A501680F6093A50180E0089581E096
:10054000089508958FEF9FEF08958FEF9FEF08951F
:1005500080917E0190E09195819591090895CF93C6
:10056000DF93CB01EA01642F0E947A02CE01DF9172
:10057000CF910895CF93DF931F92CDB7DEB76983F4
:1005800061E0CE0101960E947A0281E090E00F9036
:10059000DF91CF9108952091F1013091F201281758
:1005A000390771F49091EF018091F001981741F0B3
:1005B000E091EF01F0E0E25CFE4F808190E0089571
:1005C0008FEF9FEF0895EF92FF920F931F93CF93BA
:1005D000DF93DC015C96ED90FC905D97E114F104F3
:1005E00079F481E090E013969C938E93129790E0BB
:1005F00080E0DF91CF911F910F91FF90EF900895D0
:100600005196ED91FC91529750968C915097982F5E
:1006100090950FB75E962C915E97122F127021FD68
:100620006095F8942081112319F1282B2083E7018C
:100630002197F1F728E0462F50E0308160FF1AC083
:10064000382B3083E7012197F1F7BA01759567954B
:10065000215089F7112381F08081892380830FBF86
:100660005C968D919C910197F1F781E090E0C1CF6C
:100670002923DCCF3923E5CF9081892BEFCF20913F
:10068000F1013091F2012817390761F48091F001EE
:100690002091EF0190E0805C9F4F821B91098F7346
:1006A0009927089590E080E008952091F10130911C
:1006B000F20128173907B9F49091EF018091F00108
:1006C000981789F0E091EF01F0E0E25CFE4F808145
:1006D0002091EF0130E02F5F3F4F2F73332720939E
:1006E000EF0190E008958FEF9FEF089590E080E094
:1006F0000895FC0101900020E9F73197AF01481BF4
:10070000590BBC018FEB92E00C946D011F93CF93BA
:10071000DF9385ED8093BC008091810190918201EF
:10072000A0918301B09184010796A11DB11D23E022
:10073000B695A795979587952A95D1F72091BC00F6
:1007400024FD03C01092C90152C040918101509113
:1007500082016091830170918401452B462B472BC8
:1007600069F30097A105B10541F02AE22A95F1F756
:1007700000C00197A109B109E1CF80918001C1E0DA
:10078000C0937F01882399F1D091B8001091BA00ED
:100790008091BC008A7B8093BC0060E082E10E9473
:1007A0008D0060E083E10E948D001092C901C0932A
:1007B000CB011092CA0161E082E10E948D0061E0EC
:1007C00083E10E948D008091B9008E7F8093B900F3
:1007D0008091B9008D7F8093B90088E48093B80040
:1007E00085E48093BC001093BA00D093B800DF91E9
:1007F000CF911F9108951F920F920FB60F9211245F
:100800002F933F938F939F93AF93BF9380911A023F
:1008100090911B02A0911C02B0911D02309119020F
:1008200023E0230F2D3758F50196A11DB11D20930C
:10083000190280931A0290931B02A0931C02B0939A
:100840001D0280911E0290911F02A0912002B09182
:1008500021020196A11DB11D80931E0290931F02DB
:10086000A0932002B0932102BF91AF919F918F91ED
:100870003F912F910F900FBE0F901F90189526E873
:10088000230F0296A11DB11DD2CF1F920F920FB65A
:100890000F9211242F933F934F935F936F937F9306
:1008A0008F939F93AF93BF93EF93FF9382E292E076
:1008B0000E94EB01FF91EF91BF91AF919F918F91BA
:1008C0007F916F915F914F913F912F910F900FBE4C
:1008D0000F901F9018951F920F920FB60F92112430
:1008E0002F938F939F93EF93FF93E0913202F091B8
:1008F00033028081E0913802F091390282FD1BC001
:10090000908180913B028F5F8F7320913C02821710
:1009100041F0E0913B02F0E0EE5DFD4F958F80935A
:100920003B02FF91EF919F918F912F910F900FBEFE
:100930000F901F9018958081F4CF1F920F920FB6E1
:100940000F9211242F933F934F935F936F937F9355
:100950008F939F93AF93BF93EF93FF938091B900D1
:10096000887F803609F44AC0F0F5883209F4A5C0C2
:1009700018F5803109F499C0B8F4882309F4F5C05A
:10098000883009F492C0FF91EF91BF91AF919F9190
:100990008F917F916F915F914F913F912F910F9028
:1009A0000FBE0F901F901895883109F486C08032D1
:1009B00051F78093C80114C0803409F49BC040F4FF
:1009C0008033B9F38833F9F68093C80185ECAEC063
:1009D000803509F483C0883509F494C0883499F6C9
:1009E0000E948603D0CF883909F48AC038F5883749
:1009F00029F050F4883611F0803729F683E080938F
:100A0000C9011092C70155C0883809F479C08039EE
:100A100019F0803809F0B7CF8091C701803208F013
:100A20006FC0E091C70181E08E0F8093C701809174
:100A3000BB00F0E0E955FE4F80833BC0803B39F0BE
:100A4000D0F4803A09F477C0883A09F09CCF84E06A
:100A50008093C9011092A6011092A501F0E0E0E098
:100A600009958091A50181110FC081E08093A501B6
:100A70001092850109C0803C09F4A8CF883C09F494
:100A8000A5CF883B09F07FCFE091A60181E08E0FD2
:100A90008093A601F0E0EB57FE4F80818093BB006E
:100AA0009091A6018091A50129C08091EE018093CB
:100AB000BB0085EC8093BC0066CF9091ED018091E6
:100AC000EC01981758F5E091ED0181E08E0F8093CD
:100AD000ED01F0E0E453FE4F8081E9CFE091ED01BC
:100AE00081E08E0F8093ED018091BB00F0E0E45334
:100AF000FE4F80839091ED018091EC019817C8F230
:100B000085E8D8CFE091ED0181E08E0F8093ED0173
:100B10008091BB00F0E0E453FE4F80838091CB01D5
:100B200081115ECF81E08093CA0184EA8093BC008A
:100B30001092C90128CF85EC8093BC001092C901A6
:100B40008091C701803230F4E091C701F0E0E955AF
:100B5000FE4F10826091C70170E087EA91E0F0E0FB
:100B6000E0E009951092C7010ECF1092C80138CF6E
:100B70001F920F920FB60F9211242F933F934F9312
:100B80005F936F937F938F939F93AF93BF93EF93F5
:100B9000FF93E091F101F091F201309749F0A685C1
:100BA000B7858585968D91FF14C09C918923A1F40A
:100BB000FF91EF91BF91AF919F918F917F916F9135
:100BC0005F914F913F912F910F900FBE0F901F900B
:100BD00018959C91892361F7A389B4899C91858993
:100BE000809589238C93868997890197F1F7608D89
:100BF000718DA685B785558538E020E0CB0101973A
:100C0000F1F7822F90E095958795282F4C914523F9
:100C100009F02068315091F7868D81FD20958091F3
:100C2000F00190E001968F7399273091EF0138170A
:100C300099F0A091F001B0E0A25CBE4F2C9380939C
:100C4000F001828D938D0197F1F7A389B4898C917E
:100C50009589892B8C93ACCF868D8160868FF1CF5F
:100C6000109225021092240288EE93E0A0E0B0E0FA
:100C70008093260290932702A0932802B093290222
:100C800028E031E0309323022093220225EC30E06B
:100C900030932F0220932E0224EC30E03093310267
:100CA0002093300220EC30E0309333022093320264
:100CB00021EC30E0309335022093340222EC30E016
:100CC000309337022093360226EC30E0309339021D
:100CD0002093380210923B0210923C0210923D0287
:100CE00010923E0261E06093DE021092E0021092E8
:100CF000E1021092C2021092C1028093C30290934B
:100D0000C402A093C502B093C6028AE191E0909319
:100D1000C0028093BF021092D6021092D5021092A8
:100D2000D8021092D7021092DA021092D9021092D1
:100D3000DC021092DB028091DD028E7F8D7F80933A
:100D4000DD028695817068278AE00E948D0061E04F
:100D50008AE00E94D900E8EBF0E0E491E093CF0252
:100D6000E4EAF0E0E491F0E0EE0FFF1FE057FF4F00
:100D7000859194919093D1028093D00260E089E0B4
:100D80000E94D9008091DD0281FD04C061E089E00C
:100D90000E948D0089E08093CB02E7EBF0E0E491C4
:100DA000E093CC02E3EAF0E0E491F0E0EE0FFF1F05
:100DB000EA57FF4F859194919093CE028093CD0294
:100DC0000895789484B5826084BD84B5816084BDC3
:100DD00085B5826085BD85B5816085BD80916E00D9
:100DE000816080936E00109281008091810082600A
:100DF0008093810080918100816080938100809147
:100E000080008160809380008091B1008460809335
:100E1000B1008091B00081608093B00080917A0031
:100E2000846080937A0080917A00826080937A0057
:100E300080917A00816080937A0080917A00806846
:100E400080937A001092C100E0913202F091330257
:100E500082E08083E0912E02F0912F021082E091D7
:100E60003002F09131028FEC808310923A02E091CF
:100E70003602F091370286E08083E0913402F091EF
:100E80003502808180618083E0913402F0913502E7
:100E9000808188608083E0913402F0913502808106
:100EA00080688083E0913402F091350280818F7DEB
:100EB00080831092DA021092D9021092D802109216
:100EC000D7021092D6021092D5028DE991E090934C
:100ED000DC028093DB029091CB02963108F047C090
:100EE0002DEB30E03093D6022093D5022BE931E090
:100EF0003093D8022093D7022CE231E03093DA020B
:100F00002093D9022091680084E0983048F031E0C5
:100F10009E3008F430E081E001C0880F3A95EAF78E
:100F2000822B809368002DE630E0983050F02BE65D
:100F300030E09E3030F02CE630E0963110F030E0BA
:100F400020E03093D3022093D202292F30E0983052
:100F500008F018C281E001C0880F9A95EAF78093E3
:100F6000D4028091DB029091DC020197F1F780912D
:100F7000D9029091DA02892B49F1E091F101F091C7
:100F8000F20122E0EF3BF20709F1309739F0A38933
:100F9000B4899C918589809589238C938091DD0209
:100FA0008E7F8093DD021092F0011092EF018FEBA3
:100FB00092E09093F2018093F101E091D202F091DE
:100FC000D30280819091D402892B808390E080E0CD
:100FD0000E94BE0A8093F30190E0882309F4DFC1E8
:100FE00080E00E94BE0A8093F30181E090E00E94BD
:100FF000BE0A8093F40168EE73E080E090E00E9406
:101000002F0161E084E00E94D90061E082E00E944B
:10101000D90061E083E00E94D90061E087E00E948E
:10102000D90060E087E00E948D0061E085E00E94C9
:10103000D90060E085E00E948D0061E086E00E94BA
:10104000D90060E086E00E948D0060E082E00E94AE
:101050008D0060E083E00E948D0060E084E00E94EB
:101060008D0068EE73E080E090E00E942F0161E067
:1010700084E00E948D0068EE73E080E090E00E94C2
:101080002F0161E082E00E948D0068EE73E080E055
:1010900090E00E942F0161E083E00E948D0068EEE5
:1010A00073E080E090E00E942F0160E082E00E9407
:1010B0008D0060E083E00E948D0060E084E00E948B
:1010C0008D008091F401811133C061E08BE00E94BA
:1010D000D90060E08BE00E948D0064E670E080E063
:1010E00090E00E942F0188E291E00E94790364E67B
:1010F00070E080E090E00E942F0180E391E00E9488
:10110000790364E670E080E090E00E942F0186E3BE
:1011100091E00E94790364E670E080E090E00E9434
:101120002F0161E08BE00E948D0081E08093F4014B
:1011300082E292E00E945A02E0913402F09135027C
:1011400080818F7E8083E0913402F091350280812E
:10115000877F8083E0913402F091350280818F7720
:101160008083E0913402F091350280818F7D80830D
:1011700080913C0280933B02D7E000E010E0C1E0A8
:101180000E946101C090FA01D090FB01E090FC0147
:10119000F090FD016C197D098E099F096B30710576
:1011A0008105910508F4ACC00E9461016093FA01C9
:1011B0007093FB018093FC019093FD018FEB92E013
:1011C0000E943F03181619060CF049C08FEB92E0FD
:1011D0000E945503F090DE02F8161906A1F48FEB79
:1011E00092E00E9455038093F7018FEB92E00E94FA
:1011F00055038093F8018FEB92E00E945503809392
:10120000F901F092F6018FEB92E00E945503E6EFB0
:10121000F1E090E02191922728E097FFDBC0990F41
:101220009D272150D1F721E0EA3FF20799F7891372
:1012300016C08091F7018093DF028091F8018093BE
:10124000E0028091F9018093E1021092F601109280
:10125000F7011092F8011092F901C093F501809105
:10126000F501882309F44CC08091E002982F917019
:101270009093080281FB992790F99093090282FBD1
:10128000992790F990930A0283FB992790F99093FC
:101290000B0284FB992790F99093100285FB882715
:1012A00080F9809311028091E102982F91709093C0
:1012B0000C0281FB992790F990930D0282FB9927EC
:1012C00090F990930E0283FB992790F990930F0267
:1012D00084FB992790F99093130285FB882780F966
:1012E00080931202C09303010E9461016093150272
:1012F0007093160280931702909318021092F501D2
:1013000080910301882389F010920301609100010C
:1013100082E00E948D006091010183E00E948D00B7
:101320006091020184E00E948D008091030281118E
:101330000EC080910802882351F0C093030280916F
:10134000DF0280930202C0930201C09303018091E7
:101350000302882309F48AC09091DF02809102027F
:10136000981384C010920302F0901002E0901102D2
:10137000FF2091F1E11030C061E085E00E948D0016
:1013800060E033C09E3040F42850310981E001C054
:10139000880F2A95EAF7E3CD2E503109F7CF80E088
:1013A0000E94BE0A882329F060E090E080E00E945D
:1013B000C60AC091F40181E090E00E94BE0A8C1739
:1013C00029F06C2F81E090E00E94C60A81E08093B2
:1013D000F30111CE990F25CF60E085E00E948D00CA
:1013E000EE2071F261E0F110CBCF86E00E948D001B
:1013F00080911202882309F485C0C093020161E044
:1014000087E00E948D00C09303018091130288231E
:1014100009F48EC00E946101C090FE01D090FF01CE
:10142000E0900002F09001026C197D098E099F097D
:10143000683E734081059105C8F00E946101609388
:10144000FE017093FF018093000290930102C0930C
:1014500003018091DF02813009F05BC080910001BF
:10146000811154C0C0930001109201010E946101DA
:10147000C0901502D0901602E0901702F09018026A
:101480006C197D098E099F09683E7340810591059D
:1014900068F11092100210921102109212020E9432
:1014A0006101C0900402D0900502E0900602F09025
:1014B00007026C197D098E099F09683E73408105FA
:1014C000910590F00E9461016093040270930502FF
:1014D0008093060290930702C0930301809102015A
:1014E000811123C0C0930201C0931402011511059C
:1014F00009F446CE0E94D701882309F441CE0E9408
:1015000000003ECE1092020160E07ACF10920001FE
:10151000ABCF823009F0AACF809101018111F6CFC3
:1015200010920001C0930101A1CF10920201DCCF03
:10153000C09303018091DF02813009F493CF8230A0
:1015400079F394CF8AE191E09093C0028093BF0237
:101550008091F1019091F2018F5B924071F4E091E2
:10156000D202F091D30290818091D4028095892398
:1015700080831092F2011092F1010895F999FECF43
:1015800092BD81BDF89A992780B50895262FF999C3
:10159000FECF1FBA92BD81BD20BD0FB6F894FA9A56
:1015A000F99A0FBE01960895EE0FFF1F0590F49172
:1015B000E02D099410E0C2E6D0E004C0FE010E94D4
:0E15C000D40A2196C336D107C9F7F894FFCF9D
:1015CE0001010100000000000D026D019A015A0296
:1015DE00CB01A901BD0100000000E3026D017603FD
:1015EE00A1023F035503CB0241542B43303031004F
:0E15FE0041542B50380041542B465533000009
:00000001FF
